{
  "contractName": "AdoptMe",
  "abi": [
    {
      "inputs": [],
      "stateMutability": "nonpayable",
      "type": "constructor"
    },
    {
      "anonymous": false,
      "inputs": [
        {
          "indexed": false,
          "internalType": "uint256",
          "name": "petId",
          "type": "uint256"
        },
        {
          "indexed": false,
          "internalType": "string",
          "name": "name",
          "type": "string"
        },
        {
          "indexed": false,
          "internalType": "address",
          "name": "owner",
          "type": "address"
        }
      ],
      "name": "PetAdded",
      "type": "event"
    },
    {
      "anonymous": false,
      "inputs": [
        {
          "indexed": false,
          "internalType": "uint256",
          "name": "petId",
          "type": "uint256"
        },
        {
          "indexed": false,
          "internalType": "address",
          "name": "adopter",
          "type": "address"
        }
      ],
      "name": "PetAdopted",
      "type": "event"
    },
    {
      "inputs": [],
      "name": "admin",
      "outputs": [
        {
          "internalType": "address",
          "name": "",
          "type": "address"
        }
      ],
      "stateMutability": "view",
      "type": "function",
      "constant": true
    },
    {
      "inputs": [],
      "name": "petCount",
      "outputs": [
        {
          "internalType": "uint256",
          "name": "",
          "type": "uint256"
        }
      ],
      "stateMutability": "view",
      "type": "function",
      "constant": true
    },
    {
      "inputs": [
        {
          "internalType": "uint256",
          "name": "",
          "type": "uint256"
        }
      ],
      "name": "pets",
      "outputs": [
        {
          "internalType": "uint256",
          "name": "id",
          "type": "uint256"
        },
        {
          "internalType": "string",
          "name": "name",
          "type": "string"
        },
        {
          "internalType": "uint256",
          "name": "age",
          "type": "uint256"
        },
        {
          "internalType": "string",
          "name": "breed",
          "type": "string"
        },
        {
          "internalType": "string",
          "name": "description",
          "type": "string"
        },
        {
          "internalType": "address payable",
          "name": "owner",
          "type": "address"
        },
        {
          "internalType": "bool",
          "name": "isAdopted",
          "type": "bool"
        },
        {
          "internalType": "uint256",
          "name": "adoptionFee",
          "type": "uint256"
        },
        {
          "internalType": "string",
          "name": "imageURL",
          "type": "string"
        }
      ],
      "stateMutability": "view",
      "type": "function",
      "constant": true
    },
    {
      "inputs": [
        {
          "internalType": "address",
          "name": "",
          "type": "address"
        },
        {
          "internalType": "uint256",
          "name": "",
          "type": "uint256"
        }
      ],
      "name": "userAdoptions",
      "outputs": [
        {
          "internalType": "uint256",
          "name": "",
          "type": "uint256"
        }
      ],
      "stateMutability": "view",
      "type": "function",
      "constant": true
    },
    {
      "inputs": [
        {
          "internalType": "string",
          "name": "_name",
          "type": "string"
        },
        {
          "internalType": "uint256",
          "name": "_age",
          "type": "uint256"
        },
        {
          "internalType": "string",
          "name": "_breed",
          "type": "string"
        },
        {
          "internalType": "string",
          "name": "_description",
          "type": "string"
        },
        {
          "internalType": "string",
          "name": "_imageURL",
          "type": "string"
        },
        {
          "internalType": "uint256",
          "name": "_adoptionFee",
          "type": "uint256"
        }
      ],
      "name": "addPet",
      "outputs": [],
      "stateMutability": "nonpayable",
      "type": "function"
    },
    {
      "inputs": [
        {
          "internalType": "uint256",
          "name": "_petId",
          "type": "uint256"
        }
      ],
      "name": "adoptPet",
      "outputs": [],
      "stateMutability": "payable",
      "type": "function",
      "payable": true
    },
    {
      "inputs": [
        {
          "internalType": "uint256",
          "name": "_petId",
          "type": "uint256"
        }
      ],
      "name": "getPet",
      "outputs": [
        {
          "internalType": "uint256",
          "name": "id",
          "type": "uint256"
        },
        {
          "internalType": "string",
          "name": "name",
          "type": "string"
        },
        {
          "internalType": "uint256",
          "name": "age",
          "type": "uint256"
        },
        {
          "internalType": "string",
          "name": "breed",
          "type": "string"
        },
        {
          "internalType": "string",
          "name": "description",
          "type": "string"
        },
        {
          "internalType": "address",
          "name": "owner",
          "type": "address"
        },
        {
          "internalType": "bool",
          "name": "isAdopted",
          "type": "bool"
        },
        {
          "internalType": "uint256",
          "name": "adoptionFee",
          "type": "uint256"
        },
        {
          "internalType": "string",
          "name": "imageURL",
          "type": "string"
        }
      ],
      "stateMutability": "view",
      "type": "function",
      "constant": true
    },
    {
      "inputs": [],
      "name": "getAllPets",
      "outputs": [
        {
          "components": [
            {
              "internalType": "uint256",
              "name": "id",
              "type": "uint256"
            },
            {
              "internalType": "string",
              "name": "name",
              "type": "string"
            },
            {
              "internalType": "uint256",
              "name": "age",
              "type": "uint256"
            },
            {
              "internalType": "string",
              "name": "breed",
              "type": "string"
            },
            {
              "internalType": "string",
              "name": "description",
              "type": "string"
            },
            {
              "internalType": "address payable",
              "name": "owner",
              "type": "address"
            },
            {
              "internalType": "bool",
              "name": "isAdopted",
              "type": "bool"
            },
            {
              "internalType": "uint256",
              "name": "adoptionFee",
              "type": "uint256"
            },
            {
              "internalType": "string",
              "name": "imageURL",
              "type": "string"
            }
          ],
          "internalType": "struct AdoptMe.Pet[]",
          "name": "",
          "type": "tuple[]"
        }
      ],
      "stateMutability": "view",
      "type": "function",
      "constant": true
    },
    {
      "inputs": [],
      "name": "getAvailablePets",
      "outputs": [
        {
          "components": [
            {
              "internalType": "uint256",
              "name": "id",
              "type": "uint256"
            },
            {
              "internalType": "string",
              "name": "name",
              "type": "string"
            },
            {
              "internalType": "uint256",
              "name": "age",
              "type": "uint256"
            },
            {
              "internalType": "string",
              "name": "breed",
              "type": "string"
            },
            {
              "internalType": "string",
              "name": "description",
              "type": "string"
            },
            {
              "internalType": "address payable",
              "name": "owner",
              "type": "address"
            },
            {
              "internalType": "bool",
              "name": "isAdopted",
              "type": "bool"
            },
            {
              "internalType": "uint256",
              "name": "adoptionFee",
              "type": "uint256"
            },
            {
              "internalType": "string",
              "name": "imageURL",
              "type": "string"
            }
          ],
          "internalType": "struct AdoptMe.Pet[]",
          "name": "",
          "type": "tuple[]"
        }
      ],
      "stateMutability": "view",
      "type": "function",
      "constant": true
    },
    {
      "inputs": [
        {
          "internalType": "address",
          "name": "_user",
          "type": "address"
        }
      ],
      "name": "getUserAdoptions",
      "outputs": [
        {
          "internalType": "uint256[]",
          "name": "",
          "type": "uint256[]"
        }
      ],
      "stateMutability": "view",
      "type": "function",
      "constant": true
    },
    {
      "inputs": [],
      "name": "getPetCount",
      "outputs": [
        {
          "internalType": "uint256",
          "name": "",
          "type": "uint256"
        }
      ],
      "stateMutability": "view",
      "type": "function",
      "constant": true
    }
  ],
  "bytecode": "0x60806040523480156200001157600080fd5b50600380546001600160a01b0319163317905560006002908155604080518082018252600581526442656c6c6160d81b6020808301919091528251808401845260088152672630b13930b237b960c11b8183015283518085018552601381527f47656e74696c6c65206574206a6f75657573650000000000000000000000000081840152845160608101909552603f808652620000bf9694959293919291620020da90830139600062000328565b620001546040518060400160405280600381526020016209ac2f60eb1b81525060036040518060400160405280601081526020016f23b7b63232b7102932ba3934b2bb32b960811b8152506040518060400160405280600f81526020016e0a8e4cae640c2cccccac6e8eacaeaf608b1b8152506040518060800160405280604281526020016200211960429139600062000328565b620001e8604051806040016040528060048152602001634c756e6160e01b81525060016040518060400160405280600c81526020016b43686174205369616d6f697360a01b8152506040518060400160405280601181526020017043616c6d6520657420656c6567616e746560781b8152506040518060800160405280604281526020016200219a60429139600062000328565b6200029060405180604001604052806007815260200166436861726c696560c81b8152506004604051806040016040528060118152602001702132b933b2b91020bab9ba3930b634b2b760791b8152506040518060400160405280601881526020017f456e6572676971756520657420696e74656c6c6967656e7400000000000000008152506040518060600160405280603f81526020016200215b603f9139600062000328565b62000322604051806040016040528060048152602001634d696c6f60e01b81525060026040518060400160405280600b81526020016a21b430ba102832b939b0b760a91b8152506040518060400160405280601081526020016f446f7578206574207061697369626c6560801b8152506040518060600160405280603f8152602001620021dc603f9139600062000328565b620006b8565b6003546001600160a01b031633146200035e5760405162461bcd60e51b81526004016200035590620005a2565b60405180910390fd5b60028054906000620003708362000690565b9091555050604080516101208101825260025480825260208083018a81528385018a905260608401899052608084018890526003546001600160a01b031660a0850152600060c0850181905260e085018790526101008501889052928352828252939091208251815592518051929392620003f29260018501920190620004fc565b5060408201516002820155606082015180516200041a916003840191602090910190620004fc565b506080820151805162000438916004840191602090910190620004fc565b5060a082015160058201805460c08501511515600160a01b0260ff60a01b196001600160a01b039094166001600160a01b0319909216919091179290921691909117905560e082015160068201556101008201518051620004a4916007840191602090910190620004fc565b50506002546003546040517f90c9154ca1209ec02728dc0f8dbe66bcebb0d277ecf13fb44fcb3bff76b1ca2a9350620004ec92918a916001600160a01b0390911690620005e4565b60405180910390a1505050505050565b8280546200050a9062000653565b90600052602060002090601f0160209004810192826200052e576000855562000579565b82601f106200054957805160ff191683800117855562000579565b8280016001018555821562000579579182015b82811115620005795782518255916020019190600101906200055c565b50620005879291506200058b565b5090565b5b808211156200058757600081556001016200058c565b60208082526022908201527f4f6e6c792061646d696e2063616e20706572666f726d2074686973206163746960408201526137b760f11b606082015260800190565b600084825260206060818401528451806060850152825b818110156200061957868101830151858201608001528201620005fb565b818111156200062b5783608083870101525b506001600160a01b039490941660408401525050601f91909101601f19160160800192915050565b6002810460018216806200066857607f821691505b602082108114156200068a57634e487b7160e01b600052602260045260246000fd5b50919050565b6000600019821415620006b157634e487b7160e01b81526011600452602481fd5b5060010190565b611a1280620006c86000396000f3fe60806040526004361061009c5760003560e01c80635b236d97116100645780635b236d97146101655780637d5ac9861461017a578063a3c11c2d1461019a578063cd619f58146101ba578063cfb869bf146101cf578063f851a440146101ef5761009c565b806319b81577146100a15780633e767aaf146100b65780634e8933de146100ec5780634f154c541461010e57806359d5519414610130575b600080fd5b6100b46100af3660046115c4565b610211565b005b3480156100c257600080fd5b506100d66100d13660046114c0565b6103bf565b6040516100e39190611751565b60405180910390f35b3480156100f857600080fd5b5061010161042c565b6040516100e39190611867565b34801561011a57600080fd5b50610123610432565b6040516100e3919061164e565b34801561013c57600080fd5b5061015061014b3660046115c4565b610812565b6040516100e3999897969594939291906118b8565b34801561017157600080fd5b50610123610b51565b34801561018657600080fd5b506100b461019536600461150a565b610ebd565b3480156101a657600080fd5b506101016101b53660046114e1565b611079565b3480156101c657600080fd5b506101016110aa565b3480156101db57600080fd5b506101506101ea3660046115c4565b6110b0565b3480156101fb57600080fd5b50610204611329565b6040516100e3919061163a565b8060008111801561022457506002548111155b6102495760405162461bcd60e51b815260040161024090611795565b60405180910390fd5b60008281526020819052604090206005810154600160a01b900460ff16156102835760405162461bcd60e51b8152600401610240906117c1565b80600601543410156102a75760405162461bcd60e51b815260040161024090611830565b6006810154156102f357600581015460068201546040516001600160a01b039092169181156108fc0291906000818181858888f193505050501580156102f1573d6000803e3d6000fd5b505b806006015434111561033e57600681015433906108fc906103149034611943565b6040518115909202916000818181858888f1935050505015801561033c573d6000803e3d6000fd5b505b600581018054600160a01b336001600160a01b0319909216821760ff60a01b1916179091556000818152600160208181526040808420805493840181558452922001859055517faa2d40dd3b943f6c2f61c88fa64ea4eb2b19ea7399bdf0f1351ef2ce22ff9db0916103b291869190611870565b60405180910390a1505050565b6001600160a01b03811660009081526001602090815260409182902080548351818402810184019094528084526060939283018282801561041f57602002820191906000526020600020905b81548152602001906001019080831161040b575b505050505090505b919050565b60025490565b6060600060015b600254811161048257600081815260208190526040902060050154600160a01b900460ff16610470578161046c81611995565b9250505b8061047a81611995565b915050610439565b5060008167ffffffffffffffff8111156104ac57634e487b7160e01b600052604160045260246000fd5b6040519080825280602002602001820160405280156104e557816020015b6104d2611338565b8152602001906001900390816104ca5790505b509050600060015b600254811161080957600081815260208190526040902060050154600160a01b900460ff166107f75760008181526020818152604091829020825161012081019093528054835260018101805491928401916105489061195a565b80601f01602080910402602001604051908101604052809291908181526020018280546105749061195a565b80156105c15780601f10610596576101008083540402835291602001916105c1565b820191906000526020600020905b8154815290600101906020018083116105a457829003601f168201915b50505050508152602001600282015481526020016003820180546105e49061195a565b80601f01602080910402602001604051908101604052809291908181526020018280546106109061195a565b801561065d5780601f106106325761010080835404028352916020019161065d565b820191906000526020600020905b81548152906001019060200180831161064057829003601f168201915b505050505081526020016004820180546106769061195a565b80601f01602080910402602001604051908101604052809291908181526020018280546106a29061195a565b80156106ef5780601f106106c4576101008083540402835291602001916106ef565b820191906000526020600020905b8154815290600101906020018083116106d257829003601f168201915b505050918352505060058201546001600160a01b0381166020830152600160a01b900460ff16151560408201526006820154606082015260078201805460809092019161073b9061195a565b80601f01602080910402602001604051908101604052809291908181526020018280546107679061195a565b80156107b45780601f10610789576101008083540402835291602001916107b4565b820191906000526020600020905b81548152906001019060200180831161079757829003601f168201915b5050505050815250508383815181106107dd57634e487b7160e01b600052603260045260246000fd5b602002602001018190525081806107f390611995565b9250505b8061080181611995565b9150506104ed565b50909250505090565b600060606000606080600080600060608960008111801561083557506002548111155b6108515760405162461bcd60e51b815260040161024090611795565b60008060008d8152602001908152602001600020604051806101200160405290816000820154815260200160018201805461088b9061195a565b80601f01602080910402602001604051908101604052809291908181526020018280546108b79061195a565b80156109045780601f106108d957610100808354040283529160200191610904565b820191906000526020600020905b8154815290600101906020018083116108e757829003601f168201915b50505050508152602001600282015481526020016003820180546109279061195a565b80601f01602080910402602001604051908101604052809291908181526020018280546109539061195a565b80156109a05780601f10610975576101008083540402835291602001916109a0565b820191906000526020600020905b81548152906001019060200180831161098357829003601f168201915b505050505081526020016004820180546109b99061195a565b80601f01602080910402602001604051908101604052809291908181526020018280546109e59061195a565b8015610a325780601f10610a0757610100808354040283529160200191610a32565b820191906000526020600020905b815481529060010190602001808311610a1557829003601f168201915b505050918352505060058201546001600160a01b0381166020830152600160a01b900460ff161515604082015260068201546060820152600782018054608090920191610a7e9061195a565b80601f0160208091040260200160405190810160405280929190818152602001828054610aaa9061195a565b8015610af75780601f10610acc57610100808354040283529160200191610af7565b820191906000526020600020905b815481529060010190602001808311610ada57829003601f168201915b5050505050815250509050806000015181602001518260400151836060015184608001518560a001518660c001518760e001518861010001519a509a509a509a509a509a509a509a509a5050509193959799909294969850565b6060600060025467ffffffffffffffff811115610b7e57634e487b7160e01b600052604160045260246000fd5b604051908082528060200260200182016040528015610bb757816020015b610ba4611338565b815260200190600190039081610b9c5790505b50905060015b6002548111610eb7576000818152602081815260409182902082516101208101909352805483526001810180549192840191610bf89061195a565b80601f0160208091040260200160405190810160405280929190818152602001828054610c249061195a565b8015610c715780601f10610c4657610100808354040283529160200191610c71565b820191906000526020600020905b815481529060010190602001808311610c5457829003601f168201915b5050505050815260200160028201548152602001600382018054610c949061195a565b80601f0160208091040260200160405190810160405280929190818152602001828054610cc09061195a565b8015610d0d5780601f10610ce257610100808354040283529160200191610d0d565b820191906000526020600020905b815481529060010190602001808311610cf057829003601f168201915b50505050508152602001600482018054610d269061195a565b80601f0160208091040260200160405190810160405280929190818152602001828054610d529061195a565b8015610d9f5780601f10610d7457610100808354040283529160200191610d9f565b820191906000526020600020905b815481529060010190602001808311610d8257829003601f168201915b505050918352505060058201546001600160a01b0381166020830152600160a01b900460ff161515604082015260068201546060820152600782018054608090920191610deb9061195a565b80601f0160208091040260200160405190810160405280929190818152602001828054610e179061195a565b8015610e645780601f10610e3957610100808354040283529160200191610e64565b820191906000526020600020905b815481529060010190602001808311610e4757829003601f168201915b50505050508152505082600183610e7b9190611943565b81518110610e9957634e487b7160e01b600052603260045260246000fd5b60200260200101819052508080610eaf90611995565b915050610bbd565b50905090565b6003546001600160a01b03163314610ee75760405162461bcd60e51b8152600401610240906117ee565b60028054906000610ef783611995565b9091555050604080516101208101825260025480825260208083018a81528385018a905260608401899052608084018890526003546001600160a01b031660a0850152600060c0850181905260e085018790526101008501889052928352828252939091208251815592518051929392610f77926001850192019061138f565b506040820151600282015560608201518051610f9d91600384019160209091019061138f565b5060808201518051610fb991600484019160209091019061138f565b5060a082015160058201805460c08501511515600160a01b0260ff60a01b196001600160a01b039094166001600160a01b0319909216919091179290921691909117905560e08201516006820155610100820151805161102391600784019160209091019061138f565b50506002546003546040517f90c9154ca1209ec02728dc0f8dbe66bcebb0d277ecf13fb44fcb3bff76b1ca2a935061106992918a916001600160a01b0390911690611887565b60405180910390a1505050505050565b6001602052816000526040600020818154811061109557600080fd5b90600052602060002001600091509150505481565b60025481565b600060208190529081526040902080546001820180549192916110d29061195a565b80601f01602080910402602001604051908101604052809291908181526020018280546110fe9061195a565b801561114b5780601f106111205761010080835404028352916020019161114b565b820191906000526020600020905b81548152906001019060200180831161112e57829003601f168201915b5050505050908060020154908060030180546111669061195a565b80601f01602080910402602001604051908101604052809291908181526020018280546111929061195a565b80156111df5780601f106111b4576101008083540402835291602001916111df565b820191906000526020600020905b8154815290600101906020018083116111c257829003601f168201915b5050505050908060040180546111f49061195a565b80601f01602080910402602001604051908101604052809291908181526020018280546112209061195a565b801561126d5780601f106112425761010080835404028352916020019161126d565b820191906000526020600020905b81548152906001019060200180831161125057829003601f168201915b505050506005830154600684015460078501805494956001600160a01b03841695600160a01b90940460ff16945091926112a69061195a565b80601f01602080910402602001604051908101604052809291908181526020018280546112d29061195a565b801561131f5780601f106112f45761010080835404028352916020019161131f565b820191906000526020600020905b81548152906001019060200180831161130257829003601f168201915b5050505050905089565b6003546001600160a01b031681565b604051806101200160405280600081526020016060815260200160008152602001606081526020016060815260200160006001600160a01b0316815260200160001515815260200160008152602001606081525090565b82805461139b9061195a565b90600052602060002090601f0160209004810192826113bd5760008555611403565b82601f106113d657805160ff1916838001178555611403565b82800160010185558215611403579182015b828111156114035782518255916020019190600101906113e8565b5061140f929150611413565b5090565b5b8082111561140f5760008155600101611414565b80356001600160a01b038116811461042757600080fd5b600082601f83011261144f578081fd5b813567ffffffffffffffff8082111561146a5761146a6119c6565b604051601f8301601f19168101602001828111828210171561148e5761148e6119c6565b6040528281528483016020018610156114a5578384fd5b82602086016020830137918201602001929092529392505050565b6000602082840312156114d1578081fd5b6114da82611428565b9392505050565b600080604083850312156114f3578081fd5b6114fc83611428565b946020939093013593505050565b60008060008060008060c08789031215611522578182fd5b863567ffffffffffffffff80821115611539578384fd5b6115458a838b0161143f565b9750602089013596506040890135915080821115611561578384fd5b61156d8a838b0161143f565b95506060890135915080821115611582578384fd5b61158e8a838b0161143f565b945060808901359150808211156115a3578384fd5b506115b089828a0161143f565b92505060a087013590509295509295509295565b6000602082840312156115d5578081fd5b5035919050565b6001600160a01b03169052565b15159052565b60008151808452815b81811015611614576020818501810151868301820152016115f8565b818111156116255782602083870101525b50601f01601f19169290920160200192915050565b6001600160a01b0391909116815260200190565b60208082528251828201819052600091906040908185019080840286018301878501865b8381101561174357603f1989840301855281516101208151855288820151818a8701526116a1828701826115ef565b9150508782015188860152606080830151868303828801526116c383826115ef565b92505050608080830151868303828801526116de83826115ef565b9250505060a0808301516116f4828801826115dc565b505060c080830151611708828801826115e9565b505060e08281015190860152610100918201518582039286019290925261172f81836115ef565b968901969450505090860190600101611672565b509098975050505050505050565b6020808252825182820181905260009190848201906040850190845b818110156117895783518352928401929184019160010161176d565b50909695505050505050565b60208082526012908201527114195d08191bd95cc81b9bdd08195e1a5cdd60721b604082015260600190565b60208082526013908201527214195d08185b1c9958591e4818591bdc1d1959606a1b604082015260600190565b60208082526022908201527f4f6e6c792061646d696e2063616e20706572666f726d2074686973206163746960408201526137b760f11b606082015260800190565b60208082526019908201527f496e73756666696369656e742061646f7074696f6e2066656500000000000000604082015260600190565b90815260200190565b9182526001600160a01b0316602082015260400190565b6000848252606060208301526118a060608301856115ef565b905060018060a01b0383166040830152949350505050565b60006101208b83528060208401526118d28184018c6115ef565b905089604084015282810360608401526118ec818a6115ef565b9050828103608084015261190081896115ef565b6001600160a01b03881660a085015286151560c085015260e08401869052838103610100850152905061193381856115ef565b9c9b505050505050505050505050565b600082821015611955576119556119b0565b500390565b60028104600182168061196e57607f821691505b6020821081141561198f57634e487b7160e01b600052602260045260246000fd5b50919050565b60006000198214156119a9576119a96119b0565b5060010190565b634e487b7160e01b600052601160045260246000fd5b634e487b7160e01b600052604160045260246000fdfea264697066735822122085480f580ac7a6ff02fab43622a3712c32bbef35e017c193d79a0db9c8a549e264736f6c6343000800003368747470733a2f2f696d616765732e756e73706c6173682e636f6d2f70686f746f2d313535323035333833312d3731353934613237363332643f773d33303068747470733a2f2f696d616765732e756e73706c6173682e636f6d2f70686f746f2d313538373330303030333338382d3539323038636339363263623f773d33303068747470733a2f2f696d616765732e756e73706c6173682e636f6d2f70686f746f2d313536303734333634312d3339313466326334353633363f773d33303068747470733a2f2f696d616765732e756e73706c6173682e636f6d2f70686f746f2d313539323139343939363330382d3762343338373865383461363f773d33303068747470733a2f2f696d616765732e756e73706c6173682e636f6d2f70686f746f2d313534333835323738362d3163663636323462393938373f773d333030",
  "immutableReferences": {},
  "source": "// SPDX-License-Identifier: MIT\r\npragma solidity ^0.8.0;\r\n\r\ncontract AdoptMe {\r\n    struct Pet {\r\n        uint id;\r\n        string name;\r\n        uint age;\r\n        string breed;\r\n        string description;\r\n        address payable owner;\r\n        bool isAdopted;\r\n        uint adoptionFee;\r\n        string imageURL;\r\n    }\r\n    \r\n    mapping(uint => Pet) public pets;\r\n    mapping(address => uint[]) public userAdoptions;\r\n    \r\n    uint public petCount;\r\n    address public admin;\r\n    \r\n    event PetAdded(uint petId, string name, address owner);\r\n    event PetAdopted(uint petId, address adopter);\r\n    \r\n    modifier onlyAdmin() {\r\n        require(msg.sender == admin, \"Only admin can perform this action\");\r\n        _;\r\n    }\r\n    \r\n    modifier petExists(uint _petId) {\r\n        require(_petId > 0 && _petId <= petCount, \"Pet does not exist\");\r\n        _;\r\n    }\r\n    \r\n    constructor() {\r\n        admin = msg.sender;\r\n        petCount = 0;\r\n        \r\n        // Ajouter quelques animaux par dfaut (sans caractres accentus)\r\n        addPet(\"Bella\", 2, \"Labrador\", \"Gentille et joueuse\", \"https://images.unsplash.com/photo-1552053831-71594a27632d?w=300\", 0);\r\n        addPet(\"Max\", 3, \"Golden Retriever\", \"Tres affectueux\", \"https://images.unsplash.com/photo-1587300003388-59208cc962cb?w=300\", 0);\r\n        addPet(\"Luna\", 1, \"Chat Siamois\", \"Calme et elegante\", \"https://images.unsplash.com/photo-1592194996308-7b43878e84a6?w=300\", 0);\r\n        addPet(\"Charlie\", 4, \"Berger Australien\", \"Energique et intelligent\", \"https://images.unsplash.com/photo-1560743641-3914f2c45636?w=300\", 0);\r\n        addPet(\"Milo\", 2, \"Chat Persan\", \"Doux et paisible\", \"https://images.unsplash.com/photo-1543852786-1cf6624b9987?w=300\", 0);\r\n    }\r\n    \r\n    function addPet(\r\n        string memory _name,\r\n        uint _age,\r\n        string memory _breed,\r\n        string memory _description,\r\n        string memory _imageURL,\r\n        uint _adoptionFee\r\n    ) public onlyAdmin {\r\n        petCount++;\r\n        pets[petCount] = Pet({\r\n            id: petCount,\r\n            name: _name,\r\n            age: _age,\r\n            breed: _breed,\r\n            description: _description,\r\n            owner: payable(admin),\r\n            isAdopted: false,\r\n            adoptionFee: _adoptionFee,\r\n            imageURL: _imageURL\r\n        });\r\n        \r\n        emit PetAdded(petCount, _name, admin);\r\n    }\r\n    \r\n    function adoptPet(uint _petId) public payable petExists(_petId) {\r\n        Pet storage pet = pets[_petId];\r\n        \r\n        require(!pet.isAdopted, \"Pet already adopted\");\r\n        require(msg.value >= pet.adoptionFee, \"Insufficient adoption fee\");\r\n        \r\n        // Transfrer les frais  l'ancien propritaire\r\n        if (pet.adoptionFee > 0) {\r\n            pet.owner.transfer(pet.adoptionFee);\r\n        }\r\n        \r\n        // Rembourser l'excdent\r\n        if (msg.value > pet.adoptionFee) {\r\n            payable(msg.sender).transfer(msg.value - pet.adoptionFee);\r\n        }\r\n        \r\n        pet.owner = payable(msg.sender);\r\n        pet.isAdopted = true;\r\n        userAdoptions[msg.sender].push(_petId);\r\n        \r\n        emit PetAdopted(_petId, msg.sender);\r\n    }\r\n    \r\n    function getPet(uint _petId) public view petExists(_petId) returns (\r\n        uint id,\r\n        string memory name,\r\n        uint age,\r\n        string memory breed,\r\n        string memory description,\r\n        address owner,\r\n        bool isAdopted,\r\n        uint adoptionFee,\r\n        string memory imageURL\r\n    ) {\r\n        Pet memory pet = pets[_petId];\r\n        return (\r\n            pet.id,\r\n            pet.name,\r\n            pet.age,\r\n            pet.breed,\r\n            pet.description,\r\n            pet.owner,\r\n            pet.isAdopted,\r\n            pet.adoptionFee,\r\n            pet.imageURL\r\n        );\r\n    }\r\n    \r\n    function getAllPets() public view returns (Pet[] memory) {\r\n        Pet[] memory allPets = new Pet[](petCount);\r\n        \r\n        for (uint i = 1; i <= petCount; i++) {\r\n            allPets[i-1] = pets[i];\r\n        }\r\n        \r\n        return allPets;\r\n    }\r\n    \r\n    function getAvailablePets() public view returns (Pet[] memory) {\r\n        uint availableCount = 0;\r\n        \r\n        // Compter les animaux disponibles\r\n        for (uint i = 1; i <= petCount; i++) {\r\n            if (!pets[i].isAdopted) {\r\n                availableCount++;\r\n            }\r\n        }\r\n        \r\n        // Crer le tableau des animaux disponibles\r\n        Pet[] memory availablePets = new Pet[](availableCount);\r\n        uint currentIndex = 0;\r\n        \r\n        for (uint i = 1; i <= petCount; i++) {\r\n            if (!pets[i].isAdopted) {\r\n                availablePets[currentIndex] = pets[i];\r\n                currentIndex++;\r\n            }\r\n        }\r\n        \r\n        return availablePets;\r\n    }\r\n    \r\n    function getUserAdoptions(address _user) public view returns (uint[] memory) {\r\n        return userAdoptions[_user];\r\n    }\r\n    \r\n    function getPetCount() public view returns (uint) {\r\n        return petCount;\r\n    }\r\n}",
  "sourcePath": "C:\\Users\\ghazo\\Desktop\\AdoptMe\\contracts\\AdoptMe.sol",
  "compiler": {
    "name": "solc",
    "version": "0.8.0+commit.c7dfd78e.Emscripten.clang"
  },
  "schemaVersion": "3.4.16",
  "updatedAt": "2025-10-14T22:39:38.736Z",
  "networkType": "ethereum",
  "devdoc": {
    "kind": "dev",
    "methods": {},
    "version": 1
  },
  "userdoc": {
    "kind": "user",
    "methods": {},
    "version": 1
  }
}