{
  "contractName": "AdoptMe",
  "abi": [
    {
      "inputs": [],
      "stateMutability": "nonpayable",
      "type": "constructor"
    },
    {
      "anonymous": false,
      "inputs": [
        {
          "indexed": false,
          "internalType": "uint256",
          "name": "petId",
          "type": "uint256"
        },
        {
          "indexed": false,
          "internalType": "string",
          "name": "name",
          "type": "string"
        },
        {
          "indexed": false,
          "internalType": "address",
          "name": "owner",
          "type": "address"
        }
      ],
      "name": "PetAdded",
      "type": "event"
    },
    {
      "anonymous": false,
      "inputs": [
        {
          "indexed": false,
          "internalType": "uint256",
          "name": "petId",
          "type": "uint256"
        },
        {
          "indexed": false,
          "internalType": "address",
          "name": "adopter",
          "type": "address"
        }
      ],
      "name": "PetAdopted",
      "type": "event"
    },
    {
      "inputs": [],
      "name": "admin",
      "outputs": [
        {
          "internalType": "address",
          "name": "",
          "type": "address"
        }
      ],
      "stateMutability": "view",
      "type": "function",
      "constant": true
    },
    {
      "inputs": [],
      "name": "petCount",
      "outputs": [
        {
          "internalType": "uint256",
          "name": "",
          "type": "uint256"
        }
      ],
      "stateMutability": "view",
      "type": "function",
      "constant": true
    },
    {
      "inputs": [
        {
          "internalType": "uint256",
          "name": "",
          "type": "uint256"
        }
      ],
      "name": "pets",
      "outputs": [
        {
          "internalType": "uint256",
          "name": "id",
          "type": "uint256"
        },
        {
          "internalType": "string",
          "name": "name",
          "type": "string"
        },
        {
          "internalType": "uint256",
          "name": "age",
          "type": "uint256"
        },
        {
          "internalType": "string",
          "name": "breed",
          "type": "string"
        },
        {
          "internalType": "string",
          "name": "description",
          "type": "string"
        },
        {
          "internalType": "address payable",
          "name": "owner",
          "type": "address"
        },
        {
          "internalType": "bool",
          "name": "isAdopted",
          "type": "bool"
        },
        {
          "internalType": "uint256",
          "name": "adoptionFee",
          "type": "uint256"
        },
        {
          "internalType": "string",
          "name": "imageURL",
          "type": "string"
        }
      ],
      "stateMutability": "view",
      "type": "function",
      "constant": true
    },
    {
      "inputs": [
        {
          "internalType": "address",
          "name": "",
          "type": "address"
        },
        {
          "internalType": "uint256",
          "name": "",
          "type": "uint256"
        }
      ],
      "name": "userAdoptions",
      "outputs": [
        {
          "internalType": "uint256",
          "name": "",
          "type": "uint256"
        }
      ],
      "stateMutability": "view",
      "type": "function",
      "constant": true
    },
    {
      "inputs": [
        {
          "internalType": "string",
          "name": "_name",
          "type": "string"
        },
        {
          "internalType": "uint256",
          "name": "_age",
          "type": "uint256"
        },
        {
          "internalType": "string",
          "name": "_breed",
          "type": "string"
        },
        {
          "internalType": "string",
          "name": "_description",
          "type": "string"
        },
        {
          "internalType": "string",
          "name": "_imageURL",
          "type": "string"
        },
        {
          "internalType": "uint256",
          "name": "_adoptionFee",
          "type": "uint256"
        }
      ],
      "name": "addPet",
      "outputs": [],
      "stateMutability": "nonpayable",
      "type": "function"
    },
    {
      "inputs": [
        {
          "internalType": "uint256",
          "name": "_petId",
          "type": "uint256"
        }
      ],
      "name": "adoptPet",
      "outputs": [],
      "stateMutability": "payable",
      "type": "function",
      "payable": true
    },
    {
      "inputs": [
        {
          "internalType": "uint256",
          "name": "_petId",
          "type": "uint256"
        }
      ],
      "name": "getPet",
      "outputs": [
        {
          "internalType": "uint256",
          "name": "id",
          "type": "uint256"
        },
        {
          "internalType": "string",
          "name": "name",
          "type": "string"
        },
        {
          "internalType": "uint256",
          "name": "age",
          "type": "uint256"
        },
        {
          "internalType": "string",
          "name": "breed",
          "type": "string"
        },
        {
          "internalType": "string",
          "name": "description",
          "type": "string"
        },
        {
          "internalType": "address",
          "name": "owner",
          "type": "address"
        },
        {
          "internalType": "bool",
          "name": "isAdopted",
          "type": "bool"
        },
        {
          "internalType": "uint256",
          "name": "adoptionFee",
          "type": "uint256"
        },
        {
          "internalType": "string",
          "name": "imageURL",
          "type": "string"
        }
      ],
      "stateMutability": "view",
      "type": "function",
      "constant": true
    },
    {
      "inputs": [],
      "name": "getAllPets",
      "outputs": [
        {
          "components": [
            {
              "internalType": "uint256",
              "name": "id",
              "type": "uint256"
            },
            {
              "internalType": "string",
              "name": "name",
              "type": "string"
            },
            {
              "internalType": "uint256",
              "name": "age",
              "type": "uint256"
            },
            {
              "internalType": "string",
              "name": "breed",
              "type": "string"
            },
            {
              "internalType": "string",
              "name": "description",
              "type": "string"
            },
            {
              "internalType": "address payable",
              "name": "owner",
              "type": "address"
            },
            {
              "internalType": "bool",
              "name": "isAdopted",
              "type": "bool"
            },
            {
              "internalType": "uint256",
              "name": "adoptionFee",
              "type": "uint256"
            },
            {
              "internalType": "string",
              "name": "imageURL",
              "type": "string"
            }
          ],
          "internalType": "struct AdoptMe.Pet[]",
          "name": "",
          "type": "tuple[]"
        }
      ],
      "stateMutability": "view",
      "type": "function",
      "constant": true
    },
    {
      "inputs": [],
      "name": "getAvailablePets",
      "outputs": [
        {
          "components": [
            {
              "internalType": "uint256",
              "name": "id",
              "type": "uint256"
            },
            {
              "internalType": "string",
              "name": "name",
              "type": "string"
            },
            {
              "internalType": "uint256",
              "name": "age",
              "type": "uint256"
            },
            {
              "internalType": "string",
              "name": "breed",
              "type": "string"
            },
            {
              "internalType": "string",
              "name": "description",
              "type": "string"
            },
            {
              "internalType": "address payable",
              "name": "owner",
              "type": "address"
            },
            {
              "internalType": "bool",
              "name": "isAdopted",
              "type": "bool"
            },
            {
              "internalType": "uint256",
              "name": "adoptionFee",
              "type": "uint256"
            },
            {
              "internalType": "string",
              "name": "imageURL",
              "type": "string"
            }
          ],
          "internalType": "struct AdoptMe.Pet[]",
          "name": "",
          "type": "tuple[]"
        }
      ],
      "stateMutability": "view",
      "type": "function",
      "constant": true
    },
    {
      "inputs": [
        {
          "internalType": "address",
          "name": "_user",
          "type": "address"
        }
      ],
      "name": "getUserAdoptions",
      "outputs": [
        {
          "internalType": "uint256[]",
          "name": "",
          "type": "uint256[]"
        }
      ],
      "stateMutability": "view",
      "type": "function",
      "constant": true
    },
    {
      "inputs": [],
      "name": "getPetCount",
      "outputs": [
        {
          "internalType": "uint256",
          "name": "",
          "type": "uint256"
        }
      ],
      "stateMutability": "view",
      "type": "function",
      "constant": true
    }
  ],
  "bytecode": "0x60806040523480156200001157600080fd5b5033600360006101000a81548173ffffffffffffffffffffffffffffffffffffffff021916908373ffffffffffffffffffffffffffffffffffffffff16021790555060006002819055506200012b6040518060400160405280600581526020017f42656c6c6100000000000000000000000000000000000000000000000000000081525060026040518060400160405280600881526020017f4c61627261646f720000000000000000000000000000000000000000000000008152506040518060400160405280601381526020017f47656e74696c6c65206574206a6f7565757365000000000000000000000000008152506040518060600160405280603f815260200162002f6b603f913960006200047160201b60201c565b620001fb6040518060400160405280600381526020017f4d6178000000000000000000000000000000000000000000000000000000000081525060036040518060400160405280601081526020017f476f6c64656e20526574726965766572000000000000000000000000000000008152506040518060400160405280600f81526020017f547265732061666665637475657578000000000000000000000000000000000081525060405180608001604052806042815260200162002faa6042913960006200047160201b60201c565b620002cb6040518060400160405280600481526020017f4c756e610000000000000000000000000000000000000000000000000000000081525060016040518060400160405280600c81526020017f43686174205369616d6f697300000000000000000000000000000000000000008152506040518060400160405280601181526020017f43616c6d6520657420656c6567616e74650000000000000000000000000000008152506040518060800160405280604281526020016200302b6042913960006200047160201b60201c565b6200039b6040518060400160405280600781526020017f436861726c69650000000000000000000000000000000000000000000000000081525060046040518060400160405280601181526020017f426572676572204175737472616c69656e0000000000000000000000000000008152506040518060400160405280601881526020017f456e6572676971756520657420696e74656c6c6967656e7400000000000000008152506040518060600160405280603f815260200162002fec603f913960006200047160201b60201c565b6200046b6040518060400160405280600481526020017f4d696c6f0000000000000000000000000000000000000000000000000000000081525060026040518060400160405280600b81526020017f436861742050657273616e0000000000000000000000000000000000000000008152506040518060400160405280601081526020017f446f7578206574207061697369626c65000000000000000000000000000000008152506040518060600160405280603f81526020016200306d603f913960006200047160201b60201c565b62000a81565b600360009054906101000a900473ffffffffffffffffffffffffffffffffffffffff1673ffffffffffffffffffffffffffffffffffffffff163373ffffffffffffffffffffffffffffffffffffffff161462000504576040517f08c379a0000000000000000000000000000000000000000000000000000000008152600401620004fb9062000898565b60405180910390fd5b600260008154809291906200051990620009c4565b91905055506040518061012001604052806002548152602001878152602001868152602001858152602001848152602001600360009054906101000a900473ffffffffffffffffffffffffffffffffffffffff1673ffffffffffffffffffffffffffffffffffffffff168152602001600015158152602001828152602001838152506000806002548152602001908152602001600020600082015181600001556020820151816001019080519060200190620005d79291906200071d565b50604082015181600201556060820151816003019080519060200190620006009291906200071d565b5060808201518160040190805190602001906200061f9291906200071d565b5060a08201518160050160006101000a81548173ffffffffffffffffffffffffffffffffffffffff021916908373ffffffffffffffffffffffffffffffffffffffff16021790555060c08201518160050160146101000a81548160ff02191690831515021790555060e08201518160060155610100820151816007019080519060200190620006b09291906200071d565b509050507f90c9154ca1209ec02728dc0f8dbe66bcebb0d277ecf13fb44fcb3bff76b1ca2a60025487600360009054906101000a900473ffffffffffffffffffffffffffffffffffffffff166040516200070d93929190620008ba565b60405180910390a1505050505050565b8280546200072b906200098e565b90600052602060002090601f0160209004810192826200074f57600085556200079b565b82601f106200076a57805160ff19168380011785556200079b565b828001600101855582156200079b579182015b828111156200079a5782518255916020019190600101906200077d565b5b509050620007aa9190620007ae565b5090565b5b80821115620007c9576000816000905550600101620007af565b5090565b620007d8816200091a565b82525050565b6000620007eb82620008fe565b620007f7818562000909565b93506200080981856020860162000958565b620008148162000a70565b840191505092915050565b60006200082e60228362000909565b91507f4f6e6c792061646d696e2063616e20706572666f726d2074686973206163746960008301527f6f6e0000000000000000000000000000000000000000000000000000000000006020830152604082019050919050565b62000892816200094e565b82525050565b60006020820190508181036000830152620008b3816200081f565b9050919050565b6000606082019050620008d1600083018662000887565b8181036020830152620008e58185620007de565b9050620008f66040830184620007cd565b949350505050565b600081519050919050565b600082825260208201905092915050565b600062000927826200092e565b9050919050565b600073ffffffffffffffffffffffffffffffffffffffff82169050919050565b6000819050919050565b60005b83811015620009785780820151818401526020810190506200095b565b8381111562000988576000848401525b50505050565b60006002820490506001821680620009a757607f821691505b60208210811415620009be57620009bd62000a41565b5b50919050565b6000620009d1826200094e565b91507fffffffffffffffffffffffffffffffffffffffffffffffffffffffffffffffff82141562000a075762000a0662000a12565b5b600182019050919050565b7f4e487b7100000000000000000000000000000000000000000000000000000000600052601160045260246000fd5b7f4e487b7100000000000000000000000000000000000000000000000000000000600052602260045260246000fd5b6000601f19601f8301169050919050565b6124da8062000a916000396000f3fe60806040526004361061009c5760003560e01c80635b236d97116100645780635b236d97146101955780637d5ac986146101c0578063a3c11c2d146101e9578063cd619f5814610226578063cfb869bf14610251578063f851a440146102965761009c565b806319b81577146100a15780633e767aaf146100bd5780634e8933de146100fa5780634f154c541461012557806359d5519414610150575b600080fd5b6100bb60048036038101906100b69190611ad7565b6102c1565b005b3480156100c957600080fd5b506100e460048036038101906100df9190611989565b6105a6565b6040516100f19190611f17565b60405180910390f35b34801561010657600080fd5b5061010f61063d565b60405161011c9190611fb9565b60405180910390f35b34801561013157600080fd5b5061013a610647565b6040516101479190611ef5565b60405180910390f35b34801561015c57600080fd5b5061017760048036038101906101729190611ad7565b610abf565b60405161018c999897969594939291906120e4565b60405180910390f35b3480156101a157600080fd5b506101aa610e69565b6040516101b79190611ef5565b60405180910390f35b3480156101cc57600080fd5b506101e760048036038101906101e291906119ee565b61125b565b005b3480156101f557600080fd5b50610210600480360381019061020b91906119b2565b6114f8565b60405161021d9190611fb9565b60405180910390f35b34801561023257600080fd5b5061023b611529565b6040516102489190611fb9565b60405180910390f35b34801561025d57600080fd5b5061027860048036038101906102739190611ad7565b61152f565b60405161028d9998979695949392919061203b565b60405180910390f35b3480156102a257600080fd5b506102ab6117ca565b6040516102b89190611eda565b60405180910390f35b806000811180156102d457506002548111155b610313576040517f08c379a000000000000000000000000000000000000000000000000000000000815260040161030a90611f39565b60405180910390fd5b600080600084815260200190815260200160002090508060050160149054906101000a900460ff161561037b576040517f08c379a000000000000000000000000000000000000000000000000000000000815260040161037290611f59565b60405180910390fd5b80600601543410156103c2576040517f08c379a00000000000000000000000000000000000000000000000000000000081526004016103b990611f99565b60405180910390fd5b60008160060154111561043f578060050160009054906101000a900473ffffffffffffffffffffffffffffffffffffffff1673ffffffffffffffffffffffffffffffffffffffff166108fc82600601549081150290604051600060405180830381858888f1935050505015801561043d573d6000803e3d6000fd5b505b80600601543411156104a2573373ffffffffffffffffffffffffffffffffffffffff166108fc826006015434610475919061228d565b9081150290604051600060405180830381858888f193505050501580156104a0573d6000803e3d6000fd5b505b338160050160006101000a81548173ffffffffffffffffffffffffffffffffffffffff021916908373ffffffffffffffffffffffffffffffffffffffff16021790555060018160050160146101000a81548160ff021916908315150217905550600160003373ffffffffffffffffffffffffffffffffffffffff1673ffffffffffffffffffffffffffffffffffffffff1681526020019081526020016000208390806001815401808255809150506001900390600052602060002001600090919091909150557faa2d40dd3b943f6c2f61c88fa64ea4eb2b19ea7399bdf0f1351ef2ce22ff9db08333604051610599929190611fd4565b60405180910390a1505050565b6060600160008373ffffffffffffffffffffffffffffffffffffffff1673ffffffffffffffffffffffffffffffffffffffff16815260200190815260200160002080548060200260200160405190810160405280929190818152602001828054801561063157602002820191906000526020600020905b81548152602001906001019080831161061d575b50505050509050919050565b6000600254905090565b6060600080600190505b60025481116106a35760008082815260200190815260200160002060050160149054906101000a900460ff1661069057818061068c9061238f565b9250505b808061069b9061238f565b915050610651565b5060008167ffffffffffffffff8111156106e6577f4e487b7100000000000000000000000000000000000000000000000000000000600052604160045260246000fd5b60405190808252806020026020018201604052801561071f57816020015b61070c6117f0565b8152602001906001900390816107045790505b509050600080600190505b6002548111610ab55760008082815260200190815260200160002060050160149054906101000a900460ff16610aa25760008082815260200190815260200160002060405180610120016040529081600082015481526020016001820180546107929061235d565b80601f01602080910402602001604051908101604052809291908181526020018280546107be9061235d565b801561080b5780601f106107e05761010080835404028352916020019161080b565b820191906000526020600020905b8154815290600101906020018083116107ee57829003601f168201915b505050505081526020016002820154815260200160038201805461082e9061235d565b80601f016020809104026020016040519081016040528092919081815260200182805461085a9061235d565b80156108a75780601f1061087c576101008083540402835291602001916108a7565b820191906000526020600020905b81548152906001019060200180831161088a57829003601f168201915b505050505081526020016004820180546108c09061235d565b80601f01602080910402602001604051908101604052809291908181526020018280546108ec9061235d565b80156109395780601f1061090e57610100808354040283529160200191610939565b820191906000526020600020905b81548152906001019060200180831161091c57829003601f168201915b505050505081526020016005820160009054906101000a900473ffffffffffffffffffffffffffffffffffffffff1673ffffffffffffffffffffffffffffffffffffffff1673ffffffffffffffffffffffffffffffffffffffff1681526020016005820160149054906101000a900460ff16151515158152602001600682015481526020016007820180546109cd9061235d565b80601f01602080910402602001604051908101604052809291908181526020018280546109f99061235d565b8015610a465780601f10610a1b57610100808354040283529160200191610a46565b820191906000526020600020905b815481529060010190602001808311610a2957829003601f168201915b505050505081525050838381518110610a88577f4e487b7100000000000000000000000000000000000000000000000000000000600052603260045260246000fd5b60200260200101819052508180610a9e9061238f565b9250505b8080610aad9061238f565b91505061072a565b5081935050505090565b6000606060006060806000806000606089600081118015610ae257506002548111155b610b21576040517f08c379a0000000000000000000000000000000000000000000000000000000008152600401610b1890611f39565b60405180910390fd5b60008060008d81526020019081526020016000206040518061012001604052908160008201548152602001600182018054610b5b9061235d565b80601f0160208091040260200160405190810160405280929190818152602001828054610b879061235d565b8015610bd45780601f10610ba957610100808354040283529160200191610bd4565b820191906000526020600020905b815481529060010190602001808311610bb757829003601f168201915b5050505050815260200160028201548152602001600382018054610bf79061235d565b80601f0160208091040260200160405190810160405280929190818152602001828054610c239061235d565b8015610c705780601f10610c4557610100808354040283529160200191610c70565b820191906000526020600020905b815481529060010190602001808311610c5357829003601f168201915b50505050508152602001600482018054610c899061235d565b80601f0160208091040260200160405190810160405280929190818152602001828054610cb59061235d565b8015610d025780601f10610cd757610100808354040283529160200191610d02565b820191906000526020600020905b815481529060010190602001808311610ce557829003601f168201915b505050505081526020016005820160009054906101000a900473ffffffffffffffffffffffffffffffffffffffff1673ffffffffffffffffffffffffffffffffffffffff1673ffffffffffffffffffffffffffffffffffffffff1681526020016005820160149054906101000a900460ff1615151515815260200160068201548152602001600782018054610d969061235d565b80601f0160208091040260200160405190810160405280929190818152602001828054610dc29061235d565b8015610e0f5780601f10610de457610100808354040283529160200191610e0f565b820191906000526020600020905b815481529060010190602001808311610df257829003601f168201915b5050505050815250509050806000015181602001518260400151836060015184608001518560a001518660c001518760e001518861010001519a509a509a509a509a509a509a509a509a5050509193959799909294969850565b6060600060025467ffffffffffffffff811115610eaf577f4e487b7100000000000000000000000000000000000000000000000000000000600052604160045260246000fd5b604051908082528060200260200182016040528015610ee857816020015b610ed56117f0565b815260200190600190039081610ecd5790505b5090506000600190505b6002548111611253576000808281526020019081526020016000206040518061012001604052908160008201548152602001600182018054610f339061235d565b80601f0160208091040260200160405190810160405280929190818152602001828054610f5f9061235d565b8015610fac5780601f10610f8157610100808354040283529160200191610fac565b820191906000526020600020905b815481529060010190602001808311610f8f57829003601f168201915b5050505050815260200160028201548152602001600382018054610fcf9061235d565b80601f0160208091040260200160405190810160405280929190818152602001828054610ffb9061235d565b80156110485780601f1061101d57610100808354040283529160200191611048565b820191906000526020600020905b81548152906001019060200180831161102b57829003601f168201915b505050505081526020016004820180546110619061235d565b80601f016020809104026020016040519081016040528092919081815260200182805461108d9061235d565b80156110da5780601f106110af576101008083540402835291602001916110da565b820191906000526020600020905b8154815290600101906020018083116110bd57829003601f168201915b505050505081526020016005820160009054906101000a900473ffffffffffffffffffffffffffffffffffffffff1673ffffffffffffffffffffffffffffffffffffffff1673ffffffffffffffffffffffffffffffffffffffff1681526020016005820160149054906101000a900460ff161515151581526020016006820154815260200160078201805461116e9061235d565b80601f016020809104026020016040519081016040528092919081815260200182805461119a9061235d565b80156111e75780601f106111bc576101008083540402835291602001916111e7565b820191906000526020600020905b8154815290600101906020018083116111ca57829003601f168201915b505050505081525050826001836111fe919061228d565b81518110611235577f4e487b7100000000000000000000000000000000000000000000000000000000600052603260045260246000fd5b6020026020010181905250808061124b9061238f565b915050610ef2565b508091505090565b600360009054906101000a900473ffffffffffffffffffffffffffffffffffffffff1673ffffffffffffffffffffffffffffffffffffffff163373ffffffffffffffffffffffffffffffffffffffff16146112eb576040517f08c379a00000000000000000000000000000000000000000000000000000000081526004016112e290611f79565b60405180910390fd5b600260008154809291906112fe9061238f565b91905055506040518061012001604052806002548152602001878152602001868152602001858152602001848152602001600360009054906101000a900473ffffffffffffffffffffffffffffffffffffffff1673ffffffffffffffffffffffffffffffffffffffff1681526020016000151581526020018281526020018381525060008060025481526020019081526020016000206000820151816000015560208201518160010190805190602001906113ba929190611854565b506040820151816002015560608201518160030190805190602001906113e1929190611854565b5060808201518160040190805190602001906113fe929190611854565b5060a08201518160050160006101000a81548173ffffffffffffffffffffffffffffffffffffffff021916908373ffffffffffffffffffffffffffffffffffffffff16021790555060c08201518160050160146101000a81548160ff02191690831515021790555060e0820151816006015561010082015181600701908051906020019061148d929190611854565b509050507f90c9154ca1209ec02728dc0f8dbe66bcebb0d277ecf13fb44fcb3bff76b1ca2a60025487600360009054906101000a900473ffffffffffffffffffffffffffffffffffffffff166040516114e893929190611ffd565b60405180910390a1505050505050565b6001602052816000526040600020818154811061151457600080fd5b90600052602060002001600091509150505481565b60025481565b60006020528060005260406000206000915090508060000154908060010180546115589061235d565b80601f01602080910402602001604051908101604052809291908181526020018280546115849061235d565b80156115d15780601f106115a6576101008083540402835291602001916115d1565b820191906000526020600020905b8154815290600101906020018083116115b457829003601f168201915b5050505050908060020154908060030180546115ec9061235d565b80601f01602080910402602001604051908101604052809291908181526020018280546116189061235d565b80156116655780601f1061163a57610100808354040283529160200191611665565b820191906000526020600020905b81548152906001019060200180831161164857829003601f168201915b50505050509080600401805461167a9061235d565b80601f01602080910402602001604051908101604052809291908181526020018280546116a69061235d565b80156116f35780601f106116c8576101008083540402835291602001916116f3565b820191906000526020600020905b8154815290600101906020018083116116d657829003601f168201915b5050505050908060050160009054906101000a900473ffffffffffffffffffffffffffffffffffffffff16908060050160149054906101000a900460ff16908060060154908060070180546117479061235d565b80601f01602080910402602001604051908101604052809291908181526020018280546117739061235d565b80156117c05780601f10611795576101008083540402835291602001916117c0565b820191906000526020600020905b8154815290600101906020018083116117a357829003601f168201915b5050505050905089565b600360009054906101000a900473ffffffffffffffffffffffffffffffffffffffff1681565b6040518061012001604052806000815260200160608152602001600081526020016060815260200160608152602001600073ffffffffffffffffffffffffffffffffffffffff16815260200160001515815260200160008152602001606081525090565b8280546118609061235d565b90600052602060002090601f01602090048101928261188257600085556118c9565b82601f1061189b57805160ff19168380011785556118c9565b828001600101855582156118c9579182015b828111156118c85782518255916020019190600101906118ad565b5b5090506118d691906118da565b5090565b5b808211156118f35760008160009055506001016118db565b5090565b600061190a611905846121be565b61218d565b90508281526020810184848401111561192257600080fd5b61192d84828561231b565b509392505050565b60008135905061194481612476565b92915050565b600082601f83011261195b57600080fd5b813561196b8482602086016118f7565b91505092915050565b6000813590506119838161248d565b92915050565b60006020828403121561199b57600080fd5b60006119a984828501611935565b91505092915050565b600080604083850312156119c557600080fd5b60006119d385828601611935565b92505060206119e485828601611974565b9150509250929050565b60008060008060008060c08789031215611a0757600080fd5b600087013567ffffffffffffffff811115611a2157600080fd5b611a2d89828a0161194a565b9650506020611a3e89828a01611974565b955050604087013567ffffffffffffffff811115611a5b57600080fd5b611a6789828a0161194a565b945050606087013567ffffffffffffffff811115611a8457600080fd5b611a9089828a0161194a565b935050608087013567ffffffffffffffff811115611aad57600080fd5b611ab989828a0161194a565b92505060a0611aca89828a01611974565b9150509295509295509295565b600060208284031215611ae957600080fd5b6000611af784828501611974565b91505092915050565b6000611b0c8383611de2565b905092915050565b6000611b208383611ebc565b60208301905092915050565b611b35816122d3565b82525050565b611b44816122d3565b82525050565b611b53816122c1565b82525050565b6000611b648261220e565b611b6e8185612249565b935083602082028501611b80856121ee565b8060005b85811015611bbc5784840389528151611b9d8582611b00565b9450611ba88361222f565b925060208a01995050600181019050611b84565b50829750879550505050505092915050565b6000611bd982612219565b611be3818561225a565b9350611bee836121fe565b8060005b83811015611c1f578151611c068882611b14565b9750611c118361223c565b925050600181019050611bf2565b5085935050505092915050565b611c35816122e5565b82525050565b611c44816122e5565b82525050565b6000611c5582612224565b611c5f818561226b565b9350611c6f81856020860161232a565b611c7881612465565b840191505092915050565b6000611c8e82612224565b611c98818561227c565b9350611ca881856020860161232a565b611cb181612465565b840191505092915050565b6000611cc960128361227c565b91507f50657420646f6573206e6f7420657869737400000000000000000000000000006000830152602082019050919050565b6000611d0960138361227c565b91507f50657420616c72656164792061646f70746564000000000000000000000000006000830152602082019050919050565b6000611d4960228361227c565b91507f4f6e6c792061646d696e2063616e20706572666f726d2074686973206163746960008301527f6f6e0000000000000000000000000000000000000000000000000000000000006020830152604082019050919050565b6000611daf60198361227c565b91507f496e73756666696369656e742061646f7074696f6e20666565000000000000006000830152602082019050919050565b600061012083016000830151611dfb6000860182611ebc565b5060208301518482036020860152611e138282611c4a565b9150506040830151611e286040860182611ebc565b5060608301518482036060860152611e408282611c4a565b91505060808301518482036080860152611e5a8282611c4a565b91505060a0830151611e6f60a0860182611b2c565b5060c0830151611e8260c0860182611c2c565b5060e0830151611e9560e0860182611ebc565b50610100830151848203610100860152611eaf8282611c4a565b9150508091505092915050565b611ec581612311565b82525050565b611ed481612311565b82525050565b6000602082019050611eef6000830184611b4a565b92915050565b60006020820190508181036000830152611f0f8184611b59565b905092915050565b60006020820190508181036000830152611f318184611bce565b905092915050565b60006020820190508181036000830152611f5281611cbc565b9050919050565b60006020820190508181036000830152611f7281611cfc565b9050919050565b60006020820190508181036000830152611f9281611d3c565b9050919050565b60006020820190508181036000830152611fb281611da2565b9050919050565b6000602082019050611fce6000830184611ecb565b92915050565b6000604082019050611fe96000830185611ecb565b611ff66020830184611b4a565b9392505050565b60006060820190506120126000830186611ecb565b81810360208301526120248185611c83565b90506120336040830184611b4a565b949350505050565b600061012082019050612051600083018c611ecb565b8181036020830152612063818b611c83565b9050612072604083018a611ecb565b81810360608301526120848189611c83565b905081810360808301526120988188611c83565b90506120a760a0830187611b3b565b6120b460c0830186611c3b565b6120c160e0830185611ecb565b8181036101008301526120d48184611c83565b90509a9950505050505050505050565b6000610120820190506120fa600083018c611ecb565b818103602083015261210c818b611c83565b905061211b604083018a611ecb565b818103606083015261212d8189611c83565b905081810360808301526121418188611c83565b905061215060a0830187611b4a565b61215d60c0830186611c3b565b61216a60e0830185611ecb565b81810361010083015261217d8184611c83565b90509a9950505050505050505050565b6000604051905081810181811067ffffffffffffffff821117156121b4576121b3612436565b5b8060405250919050565b600067ffffffffffffffff8211156121d9576121d8612436565b5b601f19601f8301169050602081019050919050565b6000819050602082019050919050565b6000819050602082019050919050565b600081519050919050565b600081519050919050565b600081519050919050565b6000602082019050919050565b6000602082019050919050565b600082825260208201905092915050565b600082825260208201905092915050565b600082825260208201905092915050565b600082825260208201905092915050565b600061229882612311565b91506122a383612311565b9250828210156122b6576122b56123d8565b5b828203905092915050565b60006122cc826122f1565b9050919050565b60006122de826122f1565b9050919050565b60008115159050919050565b600073ffffffffffffffffffffffffffffffffffffffff82169050919050565b6000819050919050565b82818337600083830152505050565b60005b8381101561234857808201518184015260208101905061232d565b83811115612357576000848401525b50505050565b6000600282049050600182168061237557607f821691505b6020821081141561238957612388612407565b5b50919050565b600061239a82612311565b91507fffffffffffffffffffffffffffffffffffffffffffffffffffffffffffffffff8214156123cd576123cc6123d8565b5b600182019050919050565b7f4e487b7100000000000000000000000000000000000000000000000000000000600052601160045260246000fd5b7f4e487b7100000000000000000000000000000000000000000000000000000000600052602260045260246000fd5b7f4e487b7100000000000000000000000000000000000000000000000000000000600052604160045260246000fd5b6000601f19601f8301169050919050565b61247f816122c1565b811461248a57600080fd5b50565b61249681612311565b81146124a157600080fd5b5056fea26469706673582212206188b591cf3c3c06766c4bd143deab4c2abd987e3acacf4b4fc7f164c6a0dc0264736f6c6343000800003368747470733a2f2f696d616765732e756e73706c6173682e636f6d2f70686f746f2d313535323035333833312d3731353934613237363332643f773d33303068747470733a2f2f696d616765732e756e73706c6173682e636f6d2f70686f746f2d313538373330303030333338382d3539323038636339363263623f773d33303068747470733a2f2f696d616765732e756e73706c6173682e636f6d2f70686f746f2d313536303734333634312d3339313466326334353633363f773d33303068747470733a2f2f696d616765732e756e73706c6173682e636f6d2f70686f746f2d313539323139343939363330382d3762343338373865383461363f773d33303068747470733a2f2f696d616765732e756e73706c6173682e636f6d2f70686f746f2d313534333835323738362d3163663636323462393938373f773d333030",
  "immutableReferences": {},
  "source": "// SPDX-License-Identifier: MIT\r\npragma solidity ^0.8.0;\r\n\r\ncontract AdoptMe {\r\n    struct Pet {\r\n        uint id;\r\n        string name;\r\n        uint age;\r\n        string breed;\r\n        string description;\r\n        address payable owner;\r\n        bool isAdopted;\r\n        uint adoptionFee;\r\n        string imageURL;\r\n    }\r\n    \r\n    mapping(uint => Pet) public pets;\r\n    mapping(address => uint[]) public userAdoptions;\r\n    \r\n    uint public petCount;\r\n    address public admin;\r\n    \r\n    event PetAdded(uint petId, string name, address owner);\r\n    event PetAdopted(uint petId, address adopter);\r\n    \r\n    modifier onlyAdmin() {\r\n        require(msg.sender == admin, \"Only admin can perform this action\");\r\n        _;\r\n    }\r\n    \r\n    modifier petExists(uint _petId) {\r\n        require(_petId > 0 && _petId <= petCount, \"Pet does not exist\");\r\n        _;\r\n    }\r\n    \r\n    constructor() {\r\n        admin = msg.sender;\r\n        petCount = 0;\r\n        \r\n        // Ajouter quelques animaux par dfaut (sans caractres accentus)\r\n        addPet(\"Bella\", 2, \"Labrador\", \"Gentille et joueuse\", \"https://images.unsplash.com/photo-1552053831-71594a27632d?w=300\", 0);\r\n        addPet(\"Max\", 3, \"Golden Retriever\", \"Tres affectueux\", \"https://images.unsplash.com/photo-1587300003388-59208cc962cb?w=300\", 0);\r\n        addPet(\"Luna\", 1, \"Chat Siamois\", \"Calme et elegante\", \"https://images.unsplash.com/photo-1592194996308-7b43878e84a6?w=300\", 0);\r\n        addPet(\"Charlie\", 4, \"Berger Australien\", \"Energique et intelligent\", \"https://images.unsplash.com/photo-1560743641-3914f2c45636?w=300\", 0);\r\n        addPet(\"Milo\", 2, \"Chat Persan\", \"Doux et paisible\", \"https://images.unsplash.com/photo-1543852786-1cf6624b9987?w=300\", 0);\r\n    }\r\n    \r\n    function addPet(\r\n        string memory _name,\r\n        uint _age,\r\n        string memory _breed,\r\n        string memory _description,\r\n        string memory _imageURL,\r\n        uint _adoptionFee\r\n    ) public onlyAdmin {\r\n        petCount++;\r\n        pets[petCount] = Pet({\r\n            id: petCount,\r\n            name: _name,\r\n            age: _age,\r\n            breed: _breed,\r\n            description: _description,\r\n            owner: payable(admin),\r\n            isAdopted: false,\r\n            adoptionFee: _adoptionFee,\r\n            imageURL: _imageURL\r\n        });\r\n        \r\n        emit PetAdded(petCount, _name, admin);\r\n    }\r\n    \r\n    function adoptPet(uint _petId) public payable petExists(_petId) {\r\n        Pet storage pet = pets[_petId];\r\n        \r\n        require(!pet.isAdopted, \"Pet already adopted\");\r\n        require(msg.value >= pet.adoptionFee, \"Insufficient adoption fee\");\r\n        \r\n        // Transfrer les frais  l'ancien propritaire\r\n        if (pet.adoptionFee > 0) {\r\n            pet.owner.transfer(pet.adoptionFee);\r\n        }\r\n        \r\n        // Rembourser l'excdent\r\n        if (msg.value > pet.adoptionFee) {\r\n            payable(msg.sender).transfer(msg.value - pet.adoptionFee);\r\n        }\r\n        \r\n        pet.owner = payable(msg.sender);\r\n        pet.isAdopted = true;\r\n        userAdoptions[msg.sender].push(_petId);\r\n        \r\n        emit PetAdopted(_petId, msg.sender);\r\n    }\r\n    \r\n    function getPet(uint _petId) public view petExists(_petId) returns (\r\n        uint id,\r\n        string memory name,\r\n        uint age,\r\n        string memory breed,\r\n        string memory description,\r\n        address owner,\r\n        bool isAdopted,\r\n        uint adoptionFee,\r\n        string memory imageURL\r\n    ) {\r\n        Pet memory pet = pets[_petId];\r\n        return (\r\n            pet.id,\r\n            pet.name,\r\n            pet.age,\r\n            pet.breed,\r\n            pet.description,\r\n            pet.owner,\r\n            pet.isAdopted,\r\n            pet.adoptionFee,\r\n            pet.imageURL\r\n        );\r\n    }\r\n    \r\n    function getAllPets() public view returns (Pet[] memory) {\r\n        Pet[] memory allPets = new Pet[](petCount);\r\n        \r\n        for (uint i = 1; i <= petCount; i++) {\r\n            allPets[i-1] = pets[i];\r\n        }\r\n        \r\n        return allPets;\r\n    }\r\n    \r\n    function getAvailablePets() public view returns (Pet[] memory) {\r\n        uint availableCount = 0;\r\n        \r\n        // Compter les animaux disponibles\r\n        for (uint i = 1; i <= petCount; i++) {\r\n            if (!pets[i].isAdopted) {\r\n                availableCount++;\r\n            }\r\n        }\r\n        \r\n        // Crer le tableau des animaux disponibles\r\n        Pet[] memory availablePets = new Pet[](availableCount);\r\n        uint currentIndex = 0;\r\n        \r\n        for (uint i = 1; i <= petCount; i++) {\r\n            if (!pets[i].isAdopted) {\r\n                availablePets[currentIndex] = pets[i];\r\n                currentIndex++;\r\n            }\r\n        }\r\n        \r\n        return availablePets;\r\n    }\r\n    \r\n    function getUserAdoptions(address _user) public view returns (uint[] memory) {\r\n        return userAdoptions[_user];\r\n    }\r\n    \r\n    function getPetCount() public view returns (uint) {\r\n        return petCount;\r\n    }\r\n}",
  "sourcePath": "C:\\Users\\ghazo\\Desktop\\AdoptMe\\contracts\\AdoptMe.sol",
  "compiler": {
    "name": "solc",
    "version": "0.8.0+commit.c7dfd78e.Emscripten.clang"
  },
  "schemaVersion": "3.4.16",
  "updatedAt": "2025-10-14T21:42:36.431Z",
  "networkType": "ethereum",
  "devdoc": {
    "kind": "dev",
    "methods": {},
    "version": 1
  },
  "userdoc": {
    "kind": "user",
    "methods": {},
    "version": 1
  }
}